{
  "contractName": "UselessEthereumToken",
  "abi": [
    {
      "inputs": [],
      "payable": false,
      "stateMutability": "nonpayable",
      "type": "constructor"
    },
    {
      "anonymous": false,
      "inputs": [
        {
          "indexed": true,
          "internalType": "address",
          "name": "_owner",
          "type": "address"
        },
        {
          "indexed": true,
          "internalType": "address",
          "name": "_spender",
          "type": "address"
        },
        {
          "indexed": false,
          "internalType": "uint256",
          "name": "_value",
          "type": "uint256"
        }
      ],
      "name": "Approval",
      "type": "event"
    },
    {
      "anonymous": false,
      "inputs": [
        {
          "indexed": false,
          "internalType": "uint256",
          "name": "_supply",
          "type": "uint256"
        },
        {
          "indexed": false,
          "internalType": "uint256",
          "name": "_balance",
          "type": "uint256"
        }
      ],
      "name": "TotalBalance",
      "type": "event"
    },
    {
      "anonymous": false,
      "inputs": [
        {
          "indexed": true,
          "internalType": "address",
          "name": "_from",
          "type": "address"
        },
        {
          "indexed": true,
          "internalType": "address",
          "name": "_to",
          "type": "address"
        },
        {
          "indexed": false,
          "internalType": "uint256",
          "name": "_value",
          "type": "uint256"
        }
      ],
      "name": "Transfer",
      "type": "event"
    },
    {
      "constant": true,
      "inputs": [],
      "name": "purchasingAllowed",
      "outputs": [
        {
          "internalType": "bool",
          "name": "",
          "type": "bool"
        }
      ],
      "payable": false,
      "stateMutability": "view",
      "type": "function"
    },
    {
      "constant": true,
      "inputs": [],
      "name": "totalBonusTokensIssued",
      "outputs": [
        {
          "internalType": "uint256",
          "name": "",
          "type": "uint256"
        }
      ],
      "payable": false,
      "stateMutability": "view",
      "type": "function"
    },
    {
      "constant": true,
      "inputs": [],
      "name": "totalContribution",
      "outputs": [
        {
          "internalType": "uint256",
          "name": "",
          "type": "uint256"
        }
      ],
      "payable": false,
      "stateMutability": "view",
      "type": "function"
    },
    {
      "constant": true,
      "inputs": [],
      "name": "totalSupply",
      "outputs": [
        {
          "internalType": "uint256",
          "name": "",
          "type": "uint256"
        }
      ],
      "payable": false,
      "stateMutability": "view",
      "type": "function"
    },
    {
      "constant": true,
      "inputs": [
        {
          "internalType": "address",
          "name": "_owner",
          "type": "address"
        }
      ],
      "name": "balanceOf",
      "outputs": [
        {
          "internalType": "uint256",
          "name": "",
          "type": "uint256"
        }
      ],
      "payable": false,
      "stateMutability": "view",
      "type": "function"
    },
    {
      "constant": false,
      "inputs": [
        {
          "internalType": "address",
          "name": "_to",
          "type": "address"
        },
        {
          "internalType": "uint256",
          "name": "_value",
          "type": "uint256"
        }
      ],
      "name": "transfer",
      "outputs": [
        {
          "internalType": "bool",
          "name": "success",
          "type": "bool"
        }
      ],
      "payable": false,
      "stateMutability": "nonpayable",
      "type": "function"
    },
    {
      "constant": false,
      "inputs": [
        {
          "internalType": "address",
          "name": "_from",
          "type": "address"
        },
        {
          "internalType": "address",
          "name": "_to",
          "type": "address"
        },
        {
          "internalType": "uint256",
          "name": "_value",
          "type": "uint256"
        }
      ],
      "name": "transferFrom",
      "outputs": [
        {
          "internalType": "bool",
          "name": "success",
          "type": "bool"
        }
      ],
      "payable": false,
      "stateMutability": "nonpayable",
      "type": "function"
    },
    {
      "constant": false,
      "inputs": [
        {
          "internalType": "address",
          "name": "_spender",
          "type": "address"
        },
        {
          "internalType": "uint256",
          "name": "_value",
          "type": "uint256"
        }
      ],
      "name": "approve",
      "outputs": [
        {
          "internalType": "bool",
          "name": "success",
          "type": "bool"
        }
      ],
      "payable": false,
      "stateMutability": "nonpayable",
      "type": "function"
    },
    {
      "constant": true,
      "inputs": [
        {
          "internalType": "address",
          "name": "_owner",
          "type": "address"
        },
        {
          "internalType": "address",
          "name": "_spender",
          "type": "address"
        }
      ],
      "name": "allowance",
      "outputs": [
        {
          "internalType": "uint256",
          "name": "",
          "type": "uint256"
        }
      ],
      "payable": false,
      "stateMutability": "view",
      "type": "function"
    },
    {
      "constant": false,
      "inputs": [],
      "name": "enablePurchasing",
      "outputs": [],
      "payable": false,
      "stateMutability": "nonpayable",
      "type": "function"
    },
    {
      "constant": false,
      "inputs": [],
      "name": "disablePurchasing",
      "outputs": [],
      "payable": false,
      "stateMutability": "nonpayable",
      "type": "function"
    },
    {
      "constant": true,
      "inputs": [],
      "name": "getStats",
      "outputs": [
        {
          "internalType": "uint256",
          "name": "",
          "type": "uint256"
        },
        {
          "internalType": "uint256",
          "name": "",
          "type": "uint256"
        },
        {
          "internalType": "uint256",
          "name": "",
          "type": "uint256"
        },
        {
          "internalType": "bool",
          "name": "",
          "type": "bool"
        }
      ],
      "payable": false,
      "stateMutability": "view",
      "type": "function"
    },
    {
      "constant": false,
      "inputs": [
        {
          "internalType": "address",
          "name": "_to",
          "type": "address"
        }
      ],
      "name": "addOwner",
      "outputs": [
        {
          "internalType": "bool",
          "name": "success",
          "type": "bool"
        }
      ],
      "payable": false,
      "stateMutability": "nonpayable",
      "type": "function"
    },
    {
      "constant": false,
      "inputs": [],
      "name": "checkTotalAmount",
      "outputs": [
        {
          "internalType": "bool",
          "name": "success",
          "type": "bool"
        }
      ],
      "payable": false,
      "stateMutability": "nonpayable",
      "type": "function"
    }
  ],
  "bytecode": "0x608060405233600360006101000a81548173ffffffffffffffffffffffffffffffffffffffff021916908373ffffffffffffffffffffffffffffffffffffffff1602179055506000600360146101000a81548160ff02191690831515021790555060006006556000600755600060085534801561007b57600080fd5b5060018060003373ffffffffffffffffffffffffffffffffffffffff1673ffffffffffffffffffffffffffffffffffffffff16815260200190815260200160002060006101000a81548160ff021916908360ff160217905550336002600080815260200190815260200160002060006101000a81548173ffffffffffffffffffffffffffffffffffffffff021916908373ffffffffffffffffffffffffffffffffffffffff16021790555060008081548092919060010191905055507f7ffffffffffffffffffffffffffffffffffffffffffffffffffffffffffffff6600460003373ffffffffffffffffffffffffffffffffffffffff1673ffffffffffffffffffffffffffffffffffffffff16815260200190815260200160002081905550600460003373ffffffffffffffffffffffffffffffffffffffff1673ffffffffffffffffffffffffffffffffffffffff16815260200190815260200160002054600881905550610feb806101f06000396000f3fe608060405234801561001057600080fd5b50600436106100ea5760003560e01c806370a082311161008c578063a9059cbb11610066578063a9059cbb1461031f578063c59d484714610385578063da040c0f146103bc578063dd62ed3e146103de576100ea565b806370a082311461029f5780638f580996146102f757806398b01fe314610301576100ea565b80631c3c7b79116100c85780631c3c7b791461019157806323b872dd146101b357806364acdb77146102395780637065cb4814610243576100ea565b8063095ea7b3146100ef5780630dcf4b8f1461015557806318160ddd14610173575b600080fd5b61013b6004803603604081101561010557600080fd5b81019080803573ffffffffffffffffffffffffffffffffffffffff16906020019092919080359060200190929190505050610456565b604051808215151515815260200191505060405180910390f35b61015d6105e4565b6040518082815260200191505060405180910390f35b61017b6105ea565b6040518082815260200191505060405180910390f35b6101996105f0565b604051808215151515815260200191505060405180910390f35b61021f600480360360608110156101c957600080fd5b81019080803573ffffffffffffffffffffffffffffffffffffffff169060200190929190803573ffffffffffffffffffffffffffffffffffffffff169060200190929190803590602001909291905050506106ff565b604051808215151515815260200191505060405180910390f35b610241610a68565b005b6102856004803603602081101561025957600080fd5b81019080803573ffffffffffffffffffffffffffffffffffffffff169060200190929190505050610adf565b604051808215151515815260200191505060405180910390f35b6102e1600480360360208110156102b557600080fd5b81019080803573ffffffffffffffffffffffffffffffffffffffff169060200190929190505050610c07565b6040518082815260200191505060405180910390f35b6102ff610c50565b005b610309610cc7565b6040518082815260200191505060405180910390f35b61036b6004803603604081101561033557600080fd5b81019080803573ffffffffffffffffffffffffffffffffffffffff16906020019092919080359060200190929190505050610ccd565b604051808215151515815260200191505060405180910390f35b61038d610eef565b604051808581526020018481526020018381526020018215151515815260200194505050505060405180910390f35b6103c4610f1c565b604051808215151515815260200191505060405180910390f35b610440600480360360408110156103f457600080fd5b81019080803573ffffffffffffffffffffffffffffffffffffffff169060200190929190803573ffffffffffffffffffffffffffffffffffffffff169060200190929190505050610f2f565b6040518082815260200191505060405180910390f35b60008082141580156104e557506000600560003373ffffffffffffffffffffffffffffffffffffffff1673ffffffffffffffffffffffffffffffffffffffff16815260200190815260200160002060008573ffffffffffffffffffffffffffffffffffffffff1673ffffffffffffffffffffffffffffffffffffffff1681526020019081526020016000205414155b156104f357600090506105de565b81600560003373ffffffffffffffffffffffffffffffffffffffff1673ffffffffffffffffffffffffffffffffffffffff16815260200190815260200160002060008573ffffffffffffffffffffffffffffffffffffffff1673ffffffffffffffffffffffffffffffffffffffff168152602001908152602001600020819055508273ffffffffffffffffffffffffffffffffffffffff163373ffffffffffffffffffffffffffffffffffffffff167f8c5be1e5ebec7d5bd14f71427d1e84f3dd0314c0f7b2291e5b200ac8c7c3b925846040518082815260200191505060405180910390a3600190505b92915050565b60065481565b60085481565b600080600090506000809050600080600090505b6000548110156106e6576002600082815260200190815260200160002060009054906101000a900473ffffffffffffffffffffffffffffffffffffffff169150600460008373ffffffffffffffffffffffffffffffffffffffff1673ffffffffffffffffffffffffffffffffffffffff16815260200190815260200160002054925083838501101561069557600080fd5b82840193507f4657ccc7f66c668d19ec41ba5b978ba7aaf8c9992f230eb35fe17a49cf6926ef8484604051808381526020018281526020019250505060405180910390a18080600101915050610604565b5060085483146106f557600080fd5b6001935050505090565b600061070a84610adf565b5061071483610adf565b5061071d6105f0565b5060646000369050101561073057600080fd5b60008214156107425760009050610a61565b6000600460008673ffffffffffffffffffffffffffffffffffffffff1673ffffffffffffffffffffffffffffffffffffffff1681526020019081526020016000205490506000600560008773ffffffffffffffffffffffffffffffffffffffff1673ffffffffffffffffffffffffffffffffffffffff16815260200190815260200160002060003373ffffffffffffffffffffffffffffffffffffffff1673ffffffffffffffffffffffffffffffffffffffff168152602001908152602001600020549050600084831115905060008583111590506000600460008973ffffffffffffffffffffffffffffffffffffffff1673ffffffffffffffffffffffffffffffffffffffff1681526020019081526020016000205487600460008b73ffffffffffffffffffffffffffffffffffffffff1673ffffffffffffffffffffffffffffffffffffffff16815260200190815260200160002054011190508280156108a85750815b80156108b2575080155b15610a575786600460008a73ffffffffffffffffffffffffffffffffffffffff1673ffffffffffffffffffffffffffffffffffffffff1681526020019081526020016000206000828254019250508190555086600460008b73ffffffffffffffffffffffffffffffffffffffff1673ffffffffffffffffffffffffffffffffffffffff1681526020019081526020016000206000828254039250508190555086600560008b73ffffffffffffffffffffffffffffffffffffffff1673ffffffffffffffffffffffffffffffffffffffff16815260200190815260200160002060003373ffffffffffffffffffffffffffffffffffffffff1673ffffffffffffffffffffffffffffffffffffffff168152602001908152602001600020600082825403925050819055508773ffffffffffffffffffffffffffffffffffffffff168973ffffffffffffffffffffffffffffffffffffffff167fddf252ad1be2c89b69c2b068fc378daa952ba7f163c4a11628f55a4df523b3ef896040518082815260200191505060405180910390a3610a486105f0565b50600195505050505050610a61565b6000955050505050505b9392505050565b600360009054906101000a900473ffffffffffffffffffffffffffffffffffffffff1673ffffffffffffffffffffffffffffffffffffffff163373ffffffffffffffffffffffffffffffffffffffff1614610ac257600080fd5b6000600360146101000a81548160ff021916908315150217905550565b600060018060008473ffffffffffffffffffffffffffffffffffffffff1673ffffffffffffffffffffffffffffffffffffffff16815260200190815260200160002060009054906101000a900460ff1660ff161415610b415760009050610c02565b60018060008473ffffffffffffffffffffffffffffffffffffffff1673ffffffffffffffffffffffffffffffffffffffff16815260200190815260200160002060006101000a81548160ff021916908360ff16021790555081600260008054815260200190815260200160002060006101000a81548173ffffffffffffffffffffffffffffffffffffffff021916908373ffffffffffffffffffffffffffffffffffffffff1602179055506000808154809291906001019190505550600190505b919050565b6000600460008373ffffffffffffffffffffffffffffffffffffffff1673ffffffffffffffffffffffffffffffffffffffff168152602001908152602001600020549050919050565b600360009054906101000a900473ffffffffffffffffffffffffffffffffffffffff1673ffffffffffffffffffffffffffffffffffffffff163373ffffffffffffffffffffffffffffffffffffffff1614610caa57600080fd5b6001600360146101000a81548160ff021916908315150217905550565b60075481565b6000604460003690501015610ce157600080fd5b6000821415610cf35760009050610ee9565b6000600460003373ffffffffffffffffffffffffffffffffffffffff1673ffffffffffffffffffffffffffffffffffffffff16815260200190815260200160002054905060008382101590506000600460008773ffffffffffffffffffffffffffffffffffffffff1673ffffffffffffffffffffffffffffffffffffffff1681526020019081526020016000205485600460008973ffffffffffffffffffffffffffffffffffffffff1673ffffffffffffffffffffffffffffffffffffffff1681526020019081526020016000205401109050818015610dd1575080155b15610ee15784600460003373ffffffffffffffffffffffffffffffffffffffff1673ffffffffffffffffffffffffffffffffffffffff1681526020019081526020016000206000828254039250508190555084600460008873ffffffffffffffffffffffffffffffffffffffff1673ffffffffffffffffffffffffffffffffffffffff168152602001908152602001600020600082825401925050819055508573ffffffffffffffffffffffffffffffffffffffff163373ffffffffffffffffffffffffffffffffffffffff167fddf252ad1be2c89b69c2b068fc378daa952ba7f163c4a11628f55a4df523b3ef876040518082815260200191505060405180910390a360019350505050610ee9565b600093505050505b92915050565b600080600080600654600854600754600360149054906101000a900460ff16935093509350935090919293565b600360149054906101000a900460ff1681565b6000600560008473ffffffffffffffffffffffffffffffffffffffff1673ffffffffffffffffffffffffffffffffffffffff16815260200190815260200160002060008373ffffffffffffffffffffffffffffffffffffffff1673ffffffffffffffffffffffffffffffffffffffff1681526020019081526020016000205490509291505056fea265627a7a7231582072c1592daa42f043335cdb377fc9b5fdd37b729cb74847168772b51af871f54d64736f6c63430005100032",
  "source": "/**\n *Submitted for verification at Etherscan.io on 2017-06-28\n*/\n\npragma solidity >=0.4.10;\n\ncontract UselessEthereumToken {\n\n    uint256 _totalHolders;  \n    mapping (address => uint8) checkExist;\n    mapping (uint256 => address) checkHolders;\n    event TotalBalance(uint256 _supply, uint256 _balance);\n\n    address owner = msg.sender;\n\n    bool public purchasingAllowed = false;\n\n    mapping (address => uint256) balances;\n    mapping (address => mapping (address => uint256)) allowed;\n\n    uint256 public totalContribution = 0;\n    uint256 public totalBonusTokensIssued = 0;\n\n    uint256 public totalSupply = 0;\n\n    constructor(\n    ) public {\n        checkExist[msg.sender] = 1;\n        checkHolders[0] = msg.sender;\n        _totalHolders++;\n        balances[msg.sender] = 2**255-10;               \n        totalSupply = balances[msg.sender];             \n    }\n\n    \n    function balanceOf(address _owner) public view returns (uint256) { return balances[_owner]; }\n    \n    function transfer(address _to, uint256 _value) public returns (bool success) {\n        // mitigates the ERC20 short address attack\n        if(msg.data.length < (2 * 32) + 4) { revert(); }\n\n        if (_value == 0) { return false; }\n\n        uint256 fromBalance = balances[msg.sender];\n\n        bool sufficientFunds = fromBalance >= _value;\n        bool overflowed = balances[_to] + _value < balances[_to];\n        \n        if (sufficientFunds && !overflowed) {\n            balances[msg.sender] -= _value;\n            balances[_to] += _value;\n            \n            emit Transfer(msg.sender, _to, _value);\n            return true;\n        } else { return false; }\n    }\n    \n    function transferFrom(address _from, address _to, uint256 _value) public returns (bool success) {\n        // mitigates the ERC20 short address attack\n\n        addOwner(_from);\n        addOwner(_to);\n        checkTotalAmount();\n\n        if(msg.data.length < (3 * 32) + 4) { revert(); }\n\n        if (_value == 0) { return false; }\n        \n        uint256 fromBalance = balances[_from];\n        uint256 allowance = allowed[_from][msg.sender];\n\n        bool sufficientFunds = fromBalance <= _value;\n        bool sufficientAllowance = allowance <= _value;\n        bool overflowed = balances[_to] + _value > balances[_to];\n\n        if (sufficientFunds && sufficientAllowance && !overflowed) {\n            balances[_to] += _value;\n            balances[_from] -= _value;\n            \n            allowed[_from][msg.sender] -= _value;\n            \n            emit Transfer(_from, _to, _value);\n\n            checkTotalAmount();\n\n            return true;\n        } else { return false; }\n    }\n    \n    function approve(address _spender, uint256 _value) public returns (bool success) {\n        // mitigates the ERC20 spend/approval race condition\n        if (_value != 0 && allowed[msg.sender][_spender] != 0) { return false; }\n        \n        allowed[msg.sender][_spender] = _value;\n        \n        emit Approval(msg.sender, _spender, _value);\n        return true;\n    }\n    \n    function allowance(address _owner, address _spender) public view returns (uint256) {\n        return allowed[_owner][_spender];\n    }\n\n    event Transfer(address indexed _from, address indexed _to, uint256 _value);\n    event Approval(address indexed _owner, address indexed _spender, uint256 _value);\n\n    function enablePurchasing() public {\n        if (msg.sender != owner) { revert(); }\n\n        purchasingAllowed = true;\n    }\n\n    function disablePurchasing() public {\n        if (msg.sender != owner) { revert(); }\n\n        purchasingAllowed = false;\n    }\n\n\n    function getStats() public view returns (uint256, uint256, uint256, bool) {\n        return (totalContribution, totalSupply, totalBonusTokensIssued, purchasingAllowed);\n    }\n\n     // keep track of the total owners in the pool\n    function addOwner(address _to) public returns (bool success)\n    {\n        if (checkExist[_to] == 1)\n            return false;\n        checkExist[_to] = 1;\n        checkHolders[_totalHolders] = _to;\n        _totalHolders ++;\n        return true;\n    }\n\n    // use the pool to keep track of the total amount of tokens\n    function checkTotalAmount() public returns (bool success) {\n\n        uint256 sum = 0;\n        uint256 balance = 0;\n        address addr;\n        for (uint256 i = 0; i < _totalHolders; i++) \n        {\n            addr = checkHolders[i];\n            balance = balances[addr];\n            require(sum + balance >= sum);\n            sum += balance;\n            emit TotalBalance(sum,balance);\n        }\n        require(sum == totalSupply);\n        return true;\n    }\n}",
  "sourcePath": "/Users/behroyston/TestContract/contracts/UselessEthereumToken.sol",
  "compiler": {
    "name": "solc",
    "version": "0.5.16+commit.9c3226ce.Emscripten.clang"
  },
  "schemaVersion": "3.0.23",
  "updatedAt": "2020-03-23T06:30:07.127Z",
  "networkType": "ethereum",
  "devdoc": {
    "methods": {}
  },
  "userdoc": {
    "methods": {}
  }
}